:020000040000FA
:06000000C8EF08F0120039
:06002A000100F8070000D0
:080030001F01000007000000A1
:080038006C500CE16896040114
:1000400000513C0BE842E8420D0802E10ED801D015
:1000500046D808D0040E6C5C03E1689650D802D0F4
:10006000000E02D0010E00D01200D9CFE6FFE1CF82
:10007000D9FFE652040104BF046B01011E6B166B2D
:10008000176B1C6B1D6B03EC04F0DF6ADF50026E14
:10009000036A010E025C000E03581BE201011751B6
:1000A00001E017D0F76ADF34FE0BF736F66E1D0E4F
:1000B000F626100EF7220900F5CF02F00800F5CF62
:1000C00003F004D003C0FAFF0250F96EFBDFDF2A11
:1000D000DDD7EED8E552E552E7CFD9FF1200020E88
:1000E0000101165D0AE1A7D8040100BD03D0C80EC6
:1000F000006F02D0880E006F01D020D91200040ECC
:100100000101265D0AE122C46EFF6E50000803E281
:10011000050E266F02D0030E266F0101160512E1AF
:1001200013D8020E01011E5D04E10401840E046F68
:1001300008D0040104BD03D0C80E046F02D0880E9D
:10014000046F01D0FBD81200D9CFE6FFE1CFD9FF71
:10015000020EE1260101080E1C5D000E1D590EE283
:100160001CC1DEFF1DC1DDFF1E5103E1010E1E6F2C
:1001700004D01E0502E1020E1E6F03D0080EDE6ED3
:10018000DD6A040104930491010EDB500413DFCFF8
:1001900005F4000EDB5001011C5F010EDB501D5BFE
:1001A000280E1A6F040E1B6F010127A31ED0D9CF92
:1001B000E9FFDACFEAFFEE50ED1016E018C1F6FFC6
:1001C00019C1F7FF0800F5501AC1E9FF1BC1EAFF8A
:1001D000EF6E01011A2B000E1B23182B1923DF06CB
:1001E000010E01E2DB06E3D71CD0D9CFE9FFDACF5D
:1001F000EAFFEE50ED1015E018C1E9FF19C1EAFF62
:10020000EF501AC1E9FF1BC1EAFFEF6E01011A2B83
:10021000000E1B23182B1923DF06010E01E2DB065B
:10022000E4D7020EE15C02E2E16AE552E16EE552DA
:10023000E7CFD9FF1200D9CFE6FFE1CFD9FF020EF9
:10024000E126030E04010015E76E010EE7CFDBFF88
:1002500001C4DFFFDE5001011C27DD501D23280EE5
:10026000186F040E196FD9CFE9FFDACFEAFFEE500D
:10027000ED1014E018C1E9FF19C1EAFFEF501AC1EF
:10028000E9FF1BC1EAFFEF6E1A2B000E1B23182B90
:100290001923DF06010E01E2DB06E5D7020EE15C61
:1002A00002E2E16AE552E16EE552E7CFD9FF1200C2
:1002B0006D98010117510CE10401080E016F200E29
:1002C000026F040E036F840E006F0401046F35D0BB
:1002D000040120AF22D001011C510401265D01015F
:1002E0001D510401275904E226C41CF127C41DF145
:1002F0002BDF0101010E166F0401080E016F200EA5
:10030000026F040E036F800E006F0401280E066F4B
:10031000040E076FC80E046F10D00101020E166F95
:100320000401056BC80E046F0401080E016F280E4E
:10033000026F040E036FC80E006F1200D9CFE6FFE4
:10034000E1CFD9FFE652020E0101165D36E16D5094
:10035000100B33E004010151026E036A080E02180B
:1003600001E103502AE100513C0BE842E8420D084C
:1003700024E10051800B21E1200E026F040E036F77
:10038000DF6ADF50026E036A080E025C000E03583B
:1003900013E2DF50EA6A280FE96E040EEA22EF50FA
:1003A000E66EDF50EA6A200FE96E040EEA22E5529B
:1003B000E750EF6EDF2AE5D70DD00101166B04017F
:1003C000080E016F200E026F040E036F8C0E006F7B
:0E03D0000401046BE552E552E7CFD9FF12009D
:0203DE00040118
:1003E00020511F0B010801E05BD02051600BE84257
:1003F000E842E842E842E842010801E051D02451D5
:1004000003E0240501E04CD02151230A48E0010A11
:1004100040E0030A30E0010A25E0240A22E0070A4E
:100420001FE0010A1CE0030A11E0010A01E038D0D4
:100430000101030E176F0101F60E186F000E196F00
:10044000010127930101080E1C6F2AD00101030E40
:10045000176F0101F60E1A6F000E1B6F21D020D00E
:100460001FD01ED00101030E176F0101EE0E1A6F8F
:10047000000E1B6F15D00101030E176F0101EE0E68
:10048000186F000E196F010127930101070E1C6FF1
:1004900007D00101030E176F22C4F5F001D000D080
:1004A00012000001EE6BC20EEF6F010EF06FF16BE8
:1004B000F26BF36B080EF46FE76BE66B1A0E726E5D
:1004C0001E0E736E0401300E166F040E176F400E71
:1004D000146F0401196F380E1A6F040E1B6F880E0B
:1004E000186F0401780E1E6F040E1F6F400E1C6FF4
:1004F0001200D9CFE6FFE1CFD9FF0001E66B04017E
:1005000018BF30D0FC0EDBCF02F01951D880025456
:1005100003E2FC0E19C4DBFF0001E66BFC0EDB50AE
:10052000E65D19E2E651EA6A380FE96E040EEA2246
:10053000EF50E66EE651E76EFD0EDBCFE9FFFE0EF3
:10054000DBCFEAFFE750E926000EEA22E552E7504A
:10055000EF6EE62BE3D70401400E196F1817187DD4
:10056000880E18130001E65100D0E552E7CFD9FFFD
:100570001200D9CFE6FFE1CFD9FFE6520001E751E3
:1005800001E02FD0DF6ADF2ADF50026E036AFF0E20
:10059000021801E1035001E10BD0FD0EDBCFE9FFB2
:1005A000DB2AFE0EDBCFEAFF01E3DB2AEF50EBE1B3
:1005B000DF50026E036AD950FD0FE96EFF0EDA209C
:1005C000EA6E0250EE5E0350ED5AFD0EDBCFE8F00E
:1005D000FE0EDBCFE9F0DFCFECF00001ED6B010E9A
:1005E000E76FE552E552E7CFD9FF1200D9CFE6FF1A
:1005F000E1CFD9FFE6520001E75101E030D0DF6AD8
:10060000DF2ADF50026E036AFF0E021801E1035079
:1006100001E10CD0FD0EDBCFF6FFDB2AFE0EDBCFB7
:10062000F7FF01E3DB2A0800F550EAE1DF50026E34
:10063000036AD950FD0FE96EFF0EDA20EA6E025010
:10064000EE5E0350ED5AFD0EDBCFE8F0FE0EDBCF81
:10065000E9F0DFCFECF00001010EED6FE76FE5523E
:10066000E552E7CFD9FF1200D9CFE6FFE1CFD9FF9E
:10067000E65204011CBF6BD0030E0001E75D01E1EF
:10068000E76BE75101E163D0020EE75D06E104018B
:100690001D6B0001030EE76F54D0E70552E1400ED9
:1006A000026E036AEC51025C000E035803E2400E36
:1006B000DF6E02D0ECC0DFFFDFCF1DF4DF50EC5D5A
:1006C000EC6F780EEA6F040EEB6FED0515E1DF506D
:1006D00012E0E8C0F6FFE9C0F7FF0800F550EAC0F5
:1006E000E9FFEBC0EAFFEF6EEA2B000EEB23E82BED
:1006F000E923DF06ECD713D0DF5011E0E8C0E9FFB3
:10070000E9C0EAFFEF50EAC0E9FFEBC0EAFFEF6E95
:10071000EA2B000EEB23E82BE923DF06EDD7EC51A3
:1007200010E104011D51026E036A400E021801E13E
:10073000035004E10001020EE76F03D00001030E35
:10074000E76F400E04011C171C7D880E1C13E55238
:08075000E552E7CFD9FF1200CA
:080758002A0EF66E000EF76E8A
:10076000000EF86E01010900F550116F0900F550F7
:10077000126F03E1116701D03DD00900F5500C6FF5
:100780000900F5500D6F0900F5500E6F09000900C2
:10079000F550E96E0900F550EA6E090009000900FC
:1007A000F5500F6F0900F550106F09000900F6CFE2
:1007B00013F1F7CF14F1F8CF15F10CC1F6FF0DC10D
:1007C000F7FF0EC1F8FF01010F5302E1105307E0DC
:1007D0000900F550EE6E0F07F8E21007F9D713C1C4
:1007E000F6FF14C1F7FF15C1F8FF01011107000E54
:0607F000125BBFD71200EE
:0207F6001200EF
:0707F80000000000000000FA
:06080000C8EF08F0120031
:0A08060004012051600BE842E842B3
:10081000E842E842E842000901E055D02151070AC8
:1008200051E00B0A4FE0070A40E0010A2CE00B0AF6
:1008300028E0020A26E0030A22E0080A12E0010A80
:100840000EE00F0A0AE0030A01E03CD00101010EAC
:10085000176F0101040E266F36D036D834D090D8E9
:1008600032D00101010E176F0101280E186F010E21
:10087000196F010127930101010E1C6F24D0A8D824
:1008800022D0F4D820D00101010E176F04012451A9
:100890000101186F196B290E1827010E1923010188
:1008A00027930101010E1C6F0ED00101010E176F7D
:1008B00004012451EA6A290FE96E010EEA2222C4DA
:1008C000EFFF01D000D01200800E0401205D57E13F
:1008D0002351030A34E0010A10E0030A01E04DD07D
:1008E0000101010E176F0101520E186F0F0E196FE3
:1008F000120E01011C6F1D6B40D00101010E176F1C
:1009000004012251F66EF76AD890F636F736130EC8
:10091000F626100EF7220900F5CF18F10A00F5CFE0
:1009200019F1020E0101F76A1825F66E1951F72226
:100930000900F5CF1CF10A00F5CF1DF11ED0010111
:10094000010E176F04012251F66EF76AD890F63641
:10095000F736170EF626100EF7220900F5CF18F11C
:100960000A00F5CF19F118C1F6FF19C1F7FF080009
:10097000F55001011C6F1D6B00D00101278312008F
:100980000101010E176F0F0EE66E710EE66E0F0E6F
:10099000E66E94EC07F0E552E552E552010EE66E84
:1009A000290EE66E010EE66E94EC07F0E552E55274
:1009B000E55222C428F10401225104E10101050E8F
:1009C000266F05D00101060E266F51EC02F01200D1
:1009D0000401286B296B040120511F0B020A14E04B
:1009E000030A0EE0010A01E033D00101010E176F86
:1009F00004012881010127A102D00401288328D005
:100A00000101010E176F24D00101010E176F0401BF
:100A100024510F0B080DF350036A000F026E040EF1
:100A200003222451800B01E0010E040DF35001015B
:100A300002241A6F000E03201B6F1AC1E9FF1BC1AD
:100A4000EAFFEF50040B03E00401010E286F00D011
:100A5000010117050AE10101280E186F040E196F34
:100A6000010127930101020E1C6F120004012205EF
:100A700010E120511F0B00090CE10101010E176F5D
:100A8000030E0401215D03E10101278102D0010170
:100A90002791040122513AE120511F0B020836E14F
:100AA00024510F0B000932E00101010E176F040100
:100AB00024510F0B080DF350036A000F026E040E51
:100AC00003222451800B01E0010E040DF3500101BB
:100AD00002241A6F000E03201B6F030E0401215D18
:100AE00007E1840E1AC1E9FF1BC1EAFFEF6E0ED0C9
:100AF00024AF06D01AC1E9FF1BC1EAFFEF6A06D096
:0E0B0000880E1AC1E9FF1BC1EAFFEF6E12005A
:020B0E00E70EF0
:100B10008A16931693848150040B01E0010E0001A4
:100B2000606F780E9416870E8B12F90E9316060ED0
:100B30008A12E66A030EE66EE66A10EC08F0E552E9
:100B4000E552E5528AD8010E0001E26FE36BE46FD3
:100B5000E56B1200948E949C710EAF6E020EB06E17
:100B6000240EAC6E900EAB6E080EB86E1200D9CF8C
:100B7000E6FFE1CFD9FFACA2FED7FD0EDBCFE9FF48
:100B8000FE0EDBCFEAFFEF50AD6EFD0EDBCFE9FFCF
:100B9000DB2AFE0EDBCFEAFF01E3DB2AEF50EBE1BD
:100BA000E552E7CFD9FF1200D9CFE6FFE1CFD9FF59
:100BB000420EE126060E0101265D03E36D50020B95
:100BC00002E08A8824D0400EE66ED950010FE66E0E
:100BD000000EDA20E66E79EC02F0E552E552E552BD
:100BE000000915E0E6C0DFFFDF50010802E28A9845
:100BF00001D08A88010EDBCFE3F0020EDBCFE2F0FA
:100C0000E2C0E6FFE3C0E6FF0CD8E552E552420E33
:100C1000E15C02E2E16AE552E16EE552E7CFD9FF1D
:100C20001200D9CFE6FFE1CFD9FFFE0EDB98DB9AA9
:100C3000DB9CDB9E8A94DBCFE6FF9EEC08F0E5525E
:100C4000FD0EDBCFE6FF9EEC08F0E5528A848B9226
:100C50008B82E552E7CFD9FF12008A848B828B808A
:100C60008B948B8412000101235106E184D8000982
:100C700002E00101232B31D023050EE10001E751F1
:100C80000AE1B30EE66E100EE66EF6EC02F0E552E7
:100C9000E5520101232B21D0020E235D0EE100015C
:100CA000E7510AE16C0EE66E110EE66EF6EC02F00C
:100CB000E552E5520101232B10D0030E235D0DE117
:100CC0000001E7510AE1840EE66E100EE66EF6ECC6
:100CD00002F0E552E5520101232B1200120012002E
:100CE00012001200120001012451251104E1100E1E
:100CF000246F270E256F2407000E255B6DA20BD0F5
:100D00002451251107E18A788A50100B02E08A8667
:100D100001D08A962FD00101265103E18A988A9644
:100D200029D0260503E18A888A8624D0020E265D12
:100D300003E18A888A961ED0030E265D03E18A9815
:100D40008A8618D0050E265D07E101012451251180
:100D500002E18A788A960ED0060E265D0BE101012B
:100D60002451251107E18A788A50100B02E08A96F7
:100D700001D08A8612008150040B01E0010E0001AF
:100D8000605D09E08150040B01E0010E606F81B4E9
:0C0D900002D0010E02D0000E00D01200B4
:040D9C006DA60FD859
:100DA00002D06DB613D80101260508E16DBA06D050
:100DB000686A696A69806988020E266F12006D6A26
:100DC000696A6D860101010E266F12006D6A696AFB
:100DD0000101266B1200E6EF06F00101265101E148
:100DE00045D06850040B04E06950040B01E047D87B
:100DF0006DB23CD06850010B04E06950010B01E07A
:100E00006BD86850100B04E06950100B01E02FD82C
:100E10006850400B04E06950400B01E049D868502D
:100E2000200B04E06950200B01E044D86850020B0D
:100E300004E06950020B01E04DD8030E0101265D6C
:100E400001E214D001012A6B040E2A5D0FE2685002
:100E5000080B0BE06950080B08E01CEC00F00009DF
:100E600001E1689601012A2BEFD700D012006984B6
:100E700068986D82A19AA08A0300A09A12006D92D0
:100E8000699468A402D06894FCD71200010127A1DC
:100E90000ED06D926D840101080E2B6F070E2C6F22
:100EA0002B07000E2C5B2B512C11FAE16D941200D4
:100EB000689C120070A00CD0800E0401005D07E158
:100EC000840E0401045D03E104018C0E006F709038
:100ED000689A12006A6A12006A6A686A9F0E6B6EEC
:100EE0007B0E696E6E6A0F0EE66E710EE66E0F0E69
:100EF000E66E1AD8E552E552E552160E706E68A6F7
:100F000008D068960000000000000000000000000B
:100F1000F6D76D989EEC01F0010127910101286B35
:100F20000101030E266F1200D9CFE6FFE1CFD9FFF2
:100F3000FD0EDBCFE9FFFE0EDBCFEAFFFC0EDB5040
:100F400004E0EE6AFC0EDB06F9D7E552E7CFD9FFE5
:020F500012008D
:0E0F52001201000202000008D8040A0001008B
:100F60000102000109024300020100C0320904002D
:100F70000001020201000524001001042402020500
:100F80002406000105240100010705820308000270
:100F900009040100020A00000007050302400000E6
:100FA000070583024000000403090434034D00696F
:100FB00000630072006F0063006800690070002029
:100FC0000054006500630068006E006F006C006FE5
:100FD0000067007900200049006E0063002E003495
:100FE000034300440043002000520053002D003210
:100FF0000033003200200045006D0075006C006178
:1010000000740069006F006E002000440065006DF0
:0F101000006F00640F640FA70FAB0FDF0FDE033D
:10102000D9CFE6FFDACFE6FFE1CFD9FFE2CFDAFF93
:101030003F0EC716C66AFD0EDB50C612FB0EDB5014
:10104000C712FC0EDB50030A09E0010A04E0020AA1
:1010500006E1C78C04D0C78CC68801D0C688FD0EB7
:10106000DB50050A03E0010A03E1928A938201D072
:1010700093929380949EC68AE552E5CFDAFFE7CF3C
:04108000D9FF120082
:0C10840046756C6C2D537065656420553A
:101090005342202D204344432052532D32333220DB
:1010A000456D756C6174696F6E2044656D6F0D0AD6
:1010B0000D0A001B5B324A005479706520696E206E
:1010C0006120737472696E6720686572652E0D0AFF
:0110D000001F
:0E10D20001012B0E026F200E036F320E046F11
:1010E000350E056F2E0E066F310E075D03E1320ED1
:1010F000076F02D0310E076FF80E086F430E096FAD
:081100000D0E0A6F0B6B1200CB
:0811080005D810D8D4EC05F065
:10111000FCD712000F0EC112140E6F6E0101266B68
:101120000101276B0101286B87EF05F0CEEC06F07B
:0C1130006FBE02D0EDEC06F034EF03F0CF
:04113C00D9CFE6FF22
:10114000DACFE6FFE1CFD9FFE2CFDAFFFD0EDB50C9
:10115000C96EC6AE02D0FF0E03D0C7A0FED7000EE8
:0C116000E552E5CFDAFFE7CFD9FF12001F
:04116C000D4D696359
:10117000726F6368697020546563686E6F6C6F6727
:0F1180007920496E632E2C20323030370D0A0053
:1011900013EE00F023EE00F0F86A019CACEC03F0D3
:0C11A000FBEC03F084EC08F0FBD712001D
:0411AC0000EE00F061
:0A11B0000F0EEE6AEA62FDD712008E
:020000040030CA
:0100000024DB
:010001000EF0
:010002003FBE
:010003001EDE
:010005008179
:010006008178
:010008000FE8
:01000900C036
:01000A000FE6
:01000B00A054
:01000C000FE4
:01000D0040B2
:00000001FF
